:020000002328B3
:100008007E14803120007F08F900D022003A0319BD
:100018001D289F2101302000C0070030C13D00305D
:1000280041021F3003194002031C1D28C001C101F1
:100038001421192279082000FF007E1009002428C5
:10004800F001F101F201F301F401203084000030E5
:1000580085002330EF227E102000AA282000CB0044
:1000680071084B02031C3A28003008004B08C300F3
:100078000230C335FF3E031D3D2843357207C400D7
:100088004408053E860087014B08C5000230C53587
:10009800FF3E031D4B2845357207C6004608033E40
:1000A80084008501003FC700013FC800C709C8098F
:1000B800C70A0319C80A403F4707C900413F483DDE
:1000C800CA004B08C3000230C335FF3E031D682831
:1000D80043357207C400440A86008701403FC500C3
:1000E800413FC6004608803AC7004A08803A47029E
:1000F800031D8028490845020318A82820004B083A
:10010800C3000230C335FF3E031D862843357207FE
:10011800C4004408073E860087010108031DA8287B
:100128006430C3004B08C4000230C435FF3E031DD1
:10013800992844357207C5004508073E860087019F
:10014800430881000130080000300800B72222006F
:100158008C167D302000CC004C08C3000530F221FD
:1001680077302000C4000230C500C601C60AFF303F
:10017800CC004C08C70060220C302000CC004C0892
:10018800250093042000CE01E830CF000330D000D2
:10019800F530C3000230C4004E30CC004C08C50016
:1001A800C601C60ACA219A302000C4000230C50020
:1001B8000330CC004C08C600662105302000CD0075
:1001C8000F30CC00F130890BE728CC0BE728CD0B9A
:1001D800E72800303220003A0319ED2801302000CA
:1001E800CC004C08C20705304202031C002922003B
:1001F8008C162000C201022922008C12200042081D
:10020800CC00CD01CC35CD0DE5304C0784008230D3
:100218004D3D8500003FC300013FC4004022ED284A
:100228007008F5000230F535FF3E031D17297535B6
:100238007207F6007608033E860087017008F7000B
:100248000230F735FF3E031D252977357207F80080
:100258007808053E84008501403F803F413F813F4B
:100268007F30F500750820009E057008F500023003
:10027800F535FF3E031D3C2975357207F6007608F3
:10028800033E860087011608C03F1708C13F960144
:1002980097019E170130F5007508F0077108700284
:1002A8000318F0017008F5000230F535FF3E031D14
:1002B800592975357207F600760886008701010806
:1002C8009F000800200045088A0044080A00813180
:1002D800203023009E0010309D009F152000460806
:1002E800C700C801C735C80D8A3047078400823067
:1002F800483D8500000823009B0020004608C700F1
:10030800C801C735C80D8A30470784008230483D88
:100318008500003FC900013FCA004A0823009C002D
:1003280020009112210091160B178B1723009D179F
:10033800F401F3010800F7017108770203180800B7
:100348007708F5000230F535FF3E031DA7297535FE
:100358007207F6007608073E860087010108031930
:10036800C5297708F5000230F535FF3E031DB82989
:1003780075357207F6007608073E8600870101305A
:1003880081020130F5007508F707A029200044080C
:100398008A0043080A00813120004508C700470841
:1003A800F2004608C7004708F1001815F730C700E3
:1003B800470898051808C030C700470898049901ED
:1003C800960197010C30C70047089E041E087F302D
:1003D800C70047089E059F01181408002000C500A3
:1003E800DF30C400440821009505F7302000C40020
:1003F800440821009505F8302000C4004408210075
:10040800950520004508C4004408210095042000F3
:100418004303FF3AFF3EC4004408D600560895003F
:100428000B118B160B178B1708002000911E080064
:1004380023001908F5007508F6007308013E1F39F6
:10044800F5007508F700770874060319372A760847
:10045800F5007308203E860087017508810077083B
:10046800F5007508F3009D1C3D2A1D129D183A2AB7
:100478001D1620009112080025001308CF3920000E
:10048800C5004508C7004408C6004308C500C6366D
:10049800C50CC636C50C4508250091002000430848
:1004A8000339C5000330C535FF3E031D572A4535BE
:1004B8004704250093000800200045088A004408E6
:1004C8000A008231200047089B009A014608C800AC
:1004D80048089C041C081C153F30C8004808250023
:1004E800930591010800FB302000C3004308210058
:1004F8008C05FE302000C300430822009D05FB3018
:100508002000C300430823008C0508000A341A346D
:1005180004340D3440340334CF340034BF34003451
:10052800673400342234003410340034EF302000B3
:10053800C300430821008C05EF302000C3004308A6
:1005480023008C0522001D150800443469346634E4
:1005580066343D342534303430343034303430343B
:10056800353464340034F030210099008C012300C4
:100578008C0124008C0122009D0120008C010800C0
:100588004334683461346E346E3465346C343A34D0
:1005980025346434203400348B1A0B1DD92A2000EA
:1005A800560895000B11013008000030080001348E
:1005B80000340A34003464340034E834033410342A
:1005C800273400340034FF340034FF340134FF345E
:1005D8000234FF340334640080010131890BF02AAE
:1005E800003421000C1423000C1408000A340034D1
:020000040001F9
:04000E00E4C9FFDD65
:00000001FF
