:020000002328B3
:100008007E14803120007F08F9008322003A03190A
:100018001D28722101302000C0070030C13D00308A
:1000280041021F3003194002031C1D28C001C101F1
:10003800AA20EC2179082000FF007E10090024285E
:10004800F001F101F201F301F401203084000030E5
:100058008500223098227E102000FC282000CA004B
:1000680071084A02031C3A28003008004A08C200F6
:100078000230C235FF3E031D3D2842357207C300DA
:100088004308053E860087014A08C4000230C4358B
:10009800FF3E031D4B2844357207C5004508033E43
:1000A80084008501003FC600013FC700C609C70993
:1000B800C60A0319C70A403F4607C800413F473DE3
:1000C800C9004A08C2000230C235FF3E031D682835
:1000D80042357207C300430A86008701403FC400C7
:1000E800413FC5004508803AC6004908803A4602A3
:1000F800031D8028480844020318A82820004A083D
:10010800C2000230C235FF3E031D86284235720701
:10011800C3004308073E860087010108031DA8287D
:100128006430C2004A08C3000230C335FF3E031DD5
:10013800992843357207C4004408073E86008701A2
:100148004208810001300800003008007008F500FE
:100158000230F535FF3E031DAD2875357207F600F0
:100168007608033E860087017008F7000230F735ED
:10017800FF3E031DBB2877357207F8007808053E57
:1001880084008501403F803F413F813F7F30F5003B
:10019800750820009E057008F5000230F535FF3E11
:1001A800031DD22875357207F6007608033E8600CF
:1001B80087011608C03F1708C13F960197019E178F
:1001C8000130F5007508F007710870020318F00196
:1001D8007008F5000230F535FF3E031DEF28753530
:1001E8007207F60076088600870101089F0008005C
:1001F8006A227D302000CB004B08C2000530C521A3
:100208002A302000C3000230C400C501C50AFF30EF
:10021800CB004B08C60013220C302000CB004B0843
:10022800250093042000CC01E830CD000330CE0037
:100238009E30C2000230C3004C30CB004B08C400D3
:10024800C501C50A9D214D302000C3000230C400FD
:100258000330CB004B08C500392100303220003A6A
:100268000319312922008C163129200044088A00FC
:1002780043080A008131203023009E0010309D0081
:100288009F1520004508C600C701C635C70D3D307B
:10029800460784008230473D8500000823009B0004
:1002A80020004508C600C701C635C70D3D304607C2
:1002B80084008230473D8500003FC800013FC900E7
:1002C800490823009C0020009112210091160B1769
:1002D8008B1723009D17F401F3010800F70171083B
:1002E8007702031808007708F5000230F535FF3E5D
:1002F800031D7A2975357207F6007608073E8600D1
:1003080087010108031998297708F5000230F535A7
:10031800FF3E031D8B2975357207F6007608073EE8
:1003280086008701013081020130F5007508F70762
:100338007329200043088A0042080A0081312000FE
:100348004408C6004608F2004508C6004608F10001
:100358001815F730C600460898051808C030C600BA
:10036800460898049901960197010C30C600460882
:100378009E041E087F30C60046089E059F0118147B
:1003880008002000C400DF30C300430821009505A1
:10039800F7302000C300430821009505F8302000FD
:1003A800C30043082100950520004408C300430802
:1003B8002100950420004203FF3AFF3EC300430892
:1003C800D400540895000B118B160B178B170800D7
:1003D8002000911E080023001908F5007508F60092
:1003E8007308013E1F39F5007508F7007708740691
:1003F80003190A2A7608F5007308203E860087014B
:10040800750881007708F5007508F3009D1C102A0F
:100418001D129D180D2A1D1620009112080020009B
:1004280044088A0043080A008231200046089B00DD
:100438009A014508C70047089C041C081C153F3052
:10044800C70047082500930591010800FB302000EC
:10045800C200420821008C05FE302000C20042087C
:1004680022009D05FB302000C200420823008C05B5
:1004780008000A341A3404340D3440340334CF34B9
:100488000034BF340034673400342234003410346C
:100498000034EF302000C200420821008C05EF3004
:1004A8002000C200420823008C0522001D15080008
:1004B80044346934663466343D3425343034303459
:1004C800303430343034353464340034F030210082
:1004D80099008C0123008C0124008C0122009D01CD
:1004E80020008C0108004334683461346E346E3463
:1004F80065346C343A3425346434203400348B1A2F
:100508000B1D8C2A2000540895000B11013008009F
:1005180000300800013400340A34003464340034F4
:10052800E834033410342734640080010131890B26
:10053800992A003421000C1423000C1408000A34F2
:0205480000347D
:020000040001F9
:04000E00E4C9FFDD65
:00000001FF
